:0C0000000C9488000C9400000C9400008C
:10000C000C9400000C9400000C9400000C94000064
:10001C000C9400000C9400000C9400000C94000054
:10002C000C9400000C9400000C94B7000C9400008D
:10003C000C94D6000C9408010C9400000C94000055
:10004C000C9400000C9400001027E80364000A00D4
:10005C000100001000011000010000000100000070
:10006C00000053595354454D204C4F434B454400CD
:10007C0053595354454D20554E4C4F434B4544001A
:10008C00094C4F473A2053797374656D206C6F633C
:10009C006B65642E00094C4F473A20416C61726DC0
:1000AC002064656163746976617465642100094C30
:1000BC004F473A20416C61726D20616374697661BF
:1000CC007465642100094C4F473A20537973746569
:1000DC006D20627265616B696E21000080C0010049
:1000EC00020066000E0060026E0010006E027C00C2
:1000FC000100B102680004000A006A000200B702A5
:10010C00E8000000F894EE27ECBBF1E0F5BFE5BF8A
:10011C00F8E1F1BDE1BD8DE0A2E0BB27ED938A953E
:10012C00E9F780E098E0A0E6ED930197E9F7EAEEB5
:10013C00F0E085919591009761F0A591B5910590AE
:10014C001590BF01F00105900D920197E1F7FB01AD
:10015C00F0CFEFE5EDBFE8E0EEBFC0E6D2E00C94E7
:10016C004301EA93FA93EFB7EA931A930A931BB1FC
:10017C000CB1E12FEC7189F4E52D5394F0E0E258C9
:10018C00FD4F0083E0E1E51509F455247394E0E19B
:10019C00E71519F47724689420F80991199112C085
:1001AC00EA93FA93EFB7EA93882061F08A94E92DE9
:1001BC009394F0E0E257FD4FE081ECB9E0E1E915F2
:1001CC0009F49924E991EFBFF991E9911895AA9353
:1001DC00E0E1E815E9F3F894882011F45D990DC07D
:1001EC00E62D6394F0E0E257FD4FA881A083E0E197
:1001FC00E61509F46624839402C0E881ECB978947E
:10020C000C94DA028A93AA93BA93EA93FA93EFB70F
:10021C00EA93E091AE02AEE9B2E0F0E0EE0FFF1F20
:10022C00AE0FBF1FE4B1F5B1ED93FC93A091AE02FC
:10023C00AF5FA093AE02A83018F0E0E0E093AE02FE
:10024C00E091AE02E7B98BE18A95F1F7369AE99124
:10025C00EFBFF991E991B991A99189911895BA9348
:10026C00AA93A881B981119721F4E0E0E3BDE3E6FC
:10027C0001C0E0E0E3BD22960895E0E0EBBBEABBF1
:10028C00E8BBE7BBE5BBE4BBE2BBE0E8E1BBE0E01D
:10029C00E3BFE2BFECBFEFBDEEBDEDBDECBDE7BD16
:1002AC00E6BDEBBDEABDE9BDE8BDE2BDE7E6E5BDF7
:1002BC00E0E0E4BDE5BFE4BFE9BFEBB9E8EDEAB9C6
:1002CC00E6E8E0BDE0E0E0BDECE0E9B9E0E8E8B983
:1002DC00E0E0E0BFE7B9EBECE6B9E0E0EDB9E6BF92
:1002EC00A0E135D17894989B06C0E0E0A899E1E0B4
:1002FC000E945F0409F411C00E946504E1E0F0E083
:10030C00E093AF02F093B002E0E0E093B502E0932B
:10031C00B602ECE8F0E00E946904A091AF02B09143
:10032C00B002119711F00C947502B19B06C0E0E07D
:10033C00C199E1E00E945F0409F40BC00E946504BE
:10034C00F60131966F010A2C0B2819F4E1E0F0E06C
:10035C005F01B79B06C0E0E0C799E1E00E945F0433
:10036C0009F40DC00E946504F60131966F01E1E0BD
:10037C00F0E0EA15FB0519F4E2E0F0E05F01B39B55
:10038C0006C0E0E0C399E1E00E945F0409F40DC0EF
:10039C000E946504F60131966F01E2E0F0E0EA1587
:1003AC00FB0519F4E3E0F0E05F01B59B06C0E0E06B
:1003BC00C599E1E00E945F0409F40DC00E94650438
:1003CC00F60131966F01E3E0F0E0EA15FB0519F454
:1003DC00E4E0F0E05F01B09B06C0E0E0C099E1E032
:1003EC000E945F0409F405C00E946504F601319671
:1003FC006F01B29B06C0E0E0C299E1E00E945F048D
:10040C0009F405C00E946504F60131966F01B49B96
:10041C0006C0E0E0C499E1E00E945F0409F405C065
:10042C000E946504F60131966F01B69B06C0E0E0B0
:10043C00C699E1E00E945F0409F405C00E946504BE
:10044C00F60131966F01E4E0F0E0EC15FD0519F4CE
:10045C00EA15FB0509F019C0E1EAF0E00E94690415
:10046C000E947004E1E0F0E0E093B502F093B60274
:10047C00AA24BB24CC24DD24A091AF02B091B002FD
:10048C00E0E0F0E00E94CA0429C0E4E0F0E0EC15E2
:10049C00FD0519F4EA15FB0509F40BC0EAEBF0E0D5
:1004AC000E9469040E947604AA24BB24CC24DD2477
:1004BC0015C0A091A802B091A902A23CE1E0BE0730
:1004CC0030F0A091B502B091B602109709F006C0B9
:1004DC000E947604E1EDF0E00E94690408C0E0910E
:1004EC00AF02F091B002309711F40E947004FBCE71
:1004FC00FFCFAA93E5B3EF70AE2FE881E07FEA2B34
:10050C00E5BB85E08A95F1F7969A8DE08A95F1F72F
:10051C0096988DE08A95F1F747C0AA93A881E9DFF8
:10052C00E881E295E883A881E4DF85E88A95F1F714
:10053C003BC0A2E00E947C04ACE0EFDFA1E00E9493
:10054C007C04E0E0E093BC02E093BB020895AA9324
:10055C00E4B3E06FE4BB8E9AD29AD19A9698DA986B
:10056C00D998E881E093BD02E058E093B902E881A4
:10057C00E054E093BA02A4E1B0E00E94AF040E9400
:10058C0082040E9482040E948204A0E2B2DF88EC02
:10059C0090E00197F1F7A8E2C0DFA4E0BEDFA5E888
:1005AC00BCDFA6E0BADFC5DF21960895BA93AA9303
:1005BC00AA810E94ED00A881B981ED91FD9131963F
:1005CC00FE93EE9323960895BA93AA9326970E94CE
:1005DC00D80410E0AC85BD85E0E0F0E0ED93FC9331
:1005EC00EA89FB893196EA8BFB8B3197E4912E2FAC
:1005FC00E03011F40C941904E12FE03039F4253279
:10060C0011F411E002C00E948A040CC1E130A9F47B
:10061C00253219F40E948A0404C112E040E000E083
:10062C002D3211F401E0FEC02B3211F44BE2FAC072
:10063C00203211F440E2F6C002C0E23039F450E04E
:10064C0013E0203311F40068EDC004C0E33011F066
:10065C000C941804203310F02A3308F007C0AAE0D9
:10066C005A9F502DE22FE0535E0FDCC0E22FE33691
:10067C0049F40E949104E889F989A481AA930E9403
:10068C009704CFC0E33741F40E9491040E949D046B
:10069C000E9446041E2F0AC0E03761F40E949104A8
:1006AC000E949D040E9452041E2F086002600F7766
:1006BC0030E035C0E43611F0E93611F4046002C0C4
:1006CC00E53731F4E4E5F0E0EE83FF8315E00DC08F
:1006DC00E83511F4086004C0E83711F00C941704E5
:1006EC00EEE5F0E0EE83FF8314E002FF14C00E94FD
:1006FC0091040E94A704AB85AA233AF4EA85FB85F2
:10070C000E94BD04EA87FB874DE2403011F01F5F69
:10071C0001C00B7F04C00E9491040E94A70400FD3D
:10072C0011C0151778F407FF08C002FF04C00B7F37
:10073C00242F115001C020E301C020E20E948A0442
:10074C005150EFCF312F01FF17C03030A1F003FF14
:10075C0006C0EE81FF812591EE83FF8305C0AE813B
:10076C00BF812D91AE83BF830E948A04503009F063
:10077C0051503150EACF4BC020E3EE81FF810E94F3
:10078C00D404E887F987EE81FF813296EE83FF83EC
:10079C00E885F985AA85BB85AE17BF0750F02F5F9A
:1007AC00A885B985EA85FB85EA1BFB0BEA87FB87E5
:1007BC00EFCF2A3328F003FF02C0295F01C0295D67
:1007CC0004FD1AC0213320F4A885B985119709F4CA
:1007DC0009C0531710F000FF01C013C020E207FF3F
:1007EC000BC020E3006102FF07C00B7F4A930E94FD
:1007FC009704503009F051500E948A04503009F08F
:10080C0051503150A885B985129708F0B5CF00FF2B
:10081C0008C0503031F05150E0E2EA930E94970446
:10082C00F8CF10E0DDCEAC85BD850E94D0040E94CF
:10083C00DF0464960895FF92F82E26971A930A9374
:10084C00DE0114960E94B9048D01E0E0EC83ED8387
:10085C00EE83EF83DE0118960E94B9040E94D00447
:10086C00FA93EA931A930A93ECEDF2E0FA93EA9373
:10087C00DE011896A9DE198108812896FF9008954B
:10088C00BA93AA93A991B991EE27FF276D9166238C
:10089C0011F03196FBCF0895BA93AA93AA27BB27E0
:1008AC00E991F9910590002011F01196FBCFFD0113
:1008BC000895A1E0B0E00E94C10430970895A2E32E
:1008CC00B0E00C94AF04FA93EA9380E00E94210408
:1008DC0022960895A091B302B091B4020C94350104
:1008EC00A091B102B091B2020C9435010E94930216
:1008FC00A3E0B0E00C94AF04A0E30E947F0288EC6C
:10090C0090E00197F1F708952A93AD85BE85EF85A8
:10091C00F88909950895E889F9893497E88BF98B5A
:10092C000895AD85BE85EF85F88909950895A88948
:10093C00B98914960E94D004EE83FF83AE81BF81E7
:10094C000895A889B98914960E94D004EA87FB8778
:10095C000895109639F080ED97E00197F1F7A8957E
:10096C001197C9F708950024AF0DB01D0895F195A6
:10097C00E195F0400895EE230E2EFD0121F0EE0FCF
:10098C00FF1F0A94E1F70895EA17FB07E1E009F06D
:10099C00EE270895ED91FC91119708950590F4912F
:1009AC00E02D08955A934A933A932A931A930A93F3
:1009BC0008955D814C813B812A81198108810895BC
:00000001FF
